:100000004BC000000C946D110C94BB110C940912A0
:100010000C94571260C000005EC000005CC000007D
:100020005AC0000058C0000056C0000054C0000074
:1000300052C0000050C000004EC000000C94CC1212
:100040004AC0000048C0000046C0000044C0000094
:1000500042C0000040C000003EC000003CC00000A4
:100060003AC0000038C0000036C0000034C00000B4
:1000700032C000000C94A5122EC000002CC000005D
:100080002AC0000028C0000026C0000024C00000D4
:1000900022C0000020C0000011241FBECFEFD0E21C
:1000A000DEBFCDBF11E0A0E0B1E0ECE3FEE200E096
:1000B0000BBF02C007900D92A232B107D9F721E021
:1000C000A2E2B1E001C01D92A337B207E1F70E949E
:1000D00063110C941C170C941813E1E6F0E080E80F
:1000E00080831082F894E89AE9E6F0E080818360EA
:1000F0008083E99A80818C608083EA9A8081806322
:100100008083EB9A8081806C8083EAE7F0E08081D5
:1001100080688083808188608083ECE7F0E0808164
:10012000826480838FEF81B984B987B91AB88DB999
:1001300010BA12B888E085B918B8E0EBF0E0808119
:1001400082608083E1EBF0E0808182608083E0E781
:10015000F0E08081816080831092B20078940895ED
:100160002FB7F894609162017091630180916401EE
:10017000909165012FBF08958F929F92AF92BF9289
:10018000CF92DF92EF92FF926C01CC0CDD1CCC0C75
:10019000DD1CE6DF4B015C01E12CF12CE1DFDC0131
:1001A000CB0188199909AA09BB09C816D906EA061C
:1001B000FB06A0F7FF90EF90DF90CF90BF90AF903D
:1001C0009F908F90089594B5916094BD94B592607E
:1001D00094BD94B5906894BD95B5926095BD87BD6A
:1001E0000895CF92DF92EF92FF921F93CF93DF9308
:1001F000B7DF6B017C01C1E015E5DAEAC0FF02C0A0
:10020000D2B901C012B9ACDFDC01CB018C199D0958
:10021000AE09BF09813D9740A105B10538F0A0DFC7
:100220006B017C01CF5FC43018F4E8CFC43030F3E9
:10023000DF91CF911F91FF90EF90DF90CF900895C5
:100240008FEF93E090936A018093690190936C0122
:1002500080936B0190936E0180936D0108952091BE
:10026000690130916A0180916B0190916C01280FB6
:10027000391F80916D0190916E01280F391FABEAF3
:10028000BAEA0E94E615969587950895CF92DF9277
:10029000EF92FF9215B864DF6B017C0161DFDC0136
:1002A000CB018C199D09AE09BF09813B9440A10582
:1002B000B105A0F3FF90EF90DF90CF9008958F925B
:1002C0009F92AF92BF92CF92DF92EF92FF926C011A
:1002D00084E085B989EB77DF43DF4B015C01CC0C0F
:1002E000DD1CCC0CDD1CEE24D7FCE094FE2C38DFAA
:1002F000AB01BC01481959096A097B09C416D50626
:10030000E606F706A0F7FF90EF90DF90CF90BF9042
:10031000AF909F908F9008952F923F924F925F924F
:100320006F927F928F929F92AF92BF92CF92DF9205
:10033000EF92FF920F931F93CF93DF9300D01F9202
:10034000CDB7DEB7A3DF4DDF4CDF86E091E09B83C6
:100350008A8391E099830AE710E0312C212C412C0B
:10036000CC24CA94DC2C0F2EF9E6EF2EF1E0FF2E00
:10037000F02DE981E2B918B880912B0182FD8AC085
:10038000512C612C712C89EB1EDFF8E0F5B9832C20
:10039000922CA12CB42C4D9B16C0809130019091D1
:1003A0003101019619F4DCDE4B015C0180913001D2
:1003B0009091310181309105B9F00196909331010E
:1003C00080933001E8CF809130019091310118166F
:1003D00019062CF0D0923101C0923001DCCF10927E
:1003E000310110923001D7CFF80180818064808381
:1003F000809168018823E1F0109268018091660184
:1004000090916701F701208131818217930718F4D9
:1004100091838083C901329621E0EF36F20799F784
:100420009093670180936601F801808180648083E6
:1004300097DEDC01CB0188199909AA09BB0981392A
:100440009140A105B105A0F2852C912C869C50010C
:10045000879CB00C969CB00C112401DF8A0D9B1D6B
:10046000B4016F5F7F4F0E949415A62EB72E662EA3
:10047000772EE6DEA8B8B2B809DF80E293E01FDF8E
:1004800005DF8CE291E078DE539480912B0182FFAE
:100490007ACF02C0612C712C8B7F80932B0168B8BE
:1004A00072B8EA81FB8161927192FB83EA8380E1F9
:1004B00097E262DEF981FF5FF983F53009F059CFE9
:1004C0000F900F900F90DF91CF911F910F91FF90A0
:1004D000EF90DF90CF90BF90AF909F908F907F90E4
:1004E0006F905F904F903F902F900895CF92DF9242
:1004F000EF92FF920F931F93E0912801F091290151
:1005000040895189628973894115510561057105D9
:10051000B1F0009155011091560120915701309191
:10052000580168017901C41AD50AE60AF70AA0E061
:10053000B0E08C159D05AE05BF0508F415B81F91F8
:100540000F91FF90EF90DF90CF9008950F931F933E
:10055000CF93DF938C01EB0188E190E00E94F515C9
:10056000FC01158A148A178A168A28813981211577
:10057000310559F0378B268BA881B98155969C930C
:100580008E9354979983888305C0D8018D939C934B
:100590009983888380912A018F5F80932A0110823A
:1005A000118212821382158214821782168210869B
:1005B0001186128613861486158616861786108A6B
:1005C000118A128A138ADF91CF911F910F9108959A
:1005D000CF93DF93DC01ED91FC91309779F0A48902
:1005E000B589EC01B983A883109721F4DB011D9232
:1005F0001C9204C057961C921E925697CF010E94DF
:100600008D1680912A01815080932A01DF91CF912C
:1006100008950F931F93CF93DF938C01EB0185E037
:1006200090E00E94F515FC0112821182148213825F
:10063000288139812115310559F034832383A8811C
:10064000B98112969C938E9311979983888305C0E4
:10065000D8018D939C9399838883A0912801B091B0
:10066000290111968C918083DF91CF911F910F9179
:100670000895CF93DF93E0912601F091270122E0C6
:1006800030E0DFEFC1E0808181111EC08091550113
:1006900090915601A0915701B09158018D59934600
:1006A000A109B1094085518562857385841B950B2D
:1006B000A60BB70B873B9B40A105B10528F44C99CD
:1006C00002C0C08301C0D0830688F789E02D215085
:1006D000310921153105B9F6DF91CF910895CF93F6
:1006E000DF93EC01BCDD9F838E83E6E0F1E0A1E0C7
:1006F00061E074E021913191AC01421B530B9A01EE
:1007000022F422273327241B350B2617370710F432
:10071000A983B901AF5FA53069F729812D7F213009
:1007200029F42881213011F424E0298392B98E81A3
:1007300088B9DF91CF9108950F931F93E09126011F
:10074000F0912701309709F43FC0448555856685AF
:100750007785452B462B472B01F50688F789E02D39
:10076000309791F14485558566857785452B462BD5
:10077000472B99F312C0EAE7F0E080818064808320
:1007800023C049395A4361057105F0F08181811117
:100790001BC0CF01A4DF54DD17C04091550150911B
:1007A0005601609157017091580104851585268581
:1007B0003785401B510B620B730B48398AE358078E
:1007C00061057105F0F6D7CF1F910F910895E09163
:1007D0002601F0912701309779F184859585A685CA
:1007E000B785892B8A2B8B2B49F02091660130919C
:1007F0006701E9E6F1E04FE651E00EC00688F789AF
:10080000E02D3097C9F084859585A685B785892B1D
:100810008A2B8B2B99F3E9CF808191812817390797
:1008200018F4318320839C013296E417F507A1F771
:1008300030936701209366010895CF93DF93CAE058
:10084000D0E0809146018F5F84301CF48093460194
:1008500002C010924601E0914601FF27E7FDF095A6
:10086000E25FFE4F80818EB982E190E085DC2197C6
:10087000209739F7809146018F5F84301CF4809374
:10088000460102C010924601E0914601FF27E7FDB4
:10089000F095E25FFE4F80818EB982E190E06CDCE2
:1008A0004F99E8CF1092490180E090E0DF91CF911D
:1008B000089590914501913009F5813041F490916E
:1008C00049019150943A08F056C080E00895409153
:1008D000490150E090E0019762E3689F9001699FB1
:1008E000300D1124C901839748175907ECF181E0B5
:1008F000241735070CF03FC080E008959F3F09F5AD
:10090000813049F42091490130E02432310574F5F9
:1009100040E050E010C02091490130E090E00197A4
:1009200062E3689FA001699F500D1124CA0183965C
:1009300082179307ECF081E024173507E4F480E098
:100940000895911117C04091490150E090E001973E
:1009500062E3689F9001699F300D112481E0421786
:10096000530749F080E0089580E0089580E00895FD
:1009700080E0089581E008950F931F93CF93DF9354
:10098000C0912801D0912901209709F447C0888996
:100990009989AA89BB890097A105B10529F14091E0
:1009A00055015091560160915701709158018A018B
:1009B0009B01081B190B2A0B3B0BD901C801813283
:1009C0009E44A105B10580F062E271E084E291E00D
:1009D00020DE66E271E088E291E0FADDC091280154
:1009E000D09129012097D1F088899989AA89BB895A
:1009F0000097A105B10591F0409155015091560124
:100A0000609157017091580184179507A607B707A1
:100A100029F089814EDF811101C015B880914A010A
:100A2000813011F415B80CC08091280190912901F2
:100A3000892B21F089813DDF813011F488E085B96F
:100A4000DF91CF911F910F9108952091480130E0DF
:100A500080914901A901481B5109CA0160914501D2
:100A60006130E9F44091220150912301452B09F4B2
:100A700055C04091280150912901452B09F44EC0E1
:100A800040914701241B31092639310521F02E3CC4
:100A90003F4F09F043C02FEF209344013BC06F3F0D
:100AA000D9F44091220150912301452BE1F140916D
:100AB000280150912901452BB1F140914701241B98
:100AC00031092A364FEF340719F02233310559F531
:100AD00021E0209344011EC0611125C0009719F147
:100AE0004639510541F08E3C5FEF950721F021E03A
:100AF0002093450103C02FEF2093450140E050E0D3
:100B000060E371E440931201509313016093140168
:100B10007093150160914501613029F4992354F4D3
:100B200088539F4F08956F3F29F41816190614F43F
:100B3000885C910908954F925F926F927F928F9295
:100B40009F92AF92BF92CF92DF92EF92FF921F934C
:100B5000CF93DF93E0912201F0912301309741F090
:100B60008081815092E3899F802D112480934701D9
:100B7000A0912801B0912901109761F011968C91F4
:100B8000882341F0815092E3899F802D1124809326
:100B900048010BC0EF2B29F0809147018093480159
:100BA00004C080914901809348014FDFEC01D8DAFD
:100BB0004B015C0120E030E040E850E4609112011C
:100BC0007091130180911401909115010E943115CB
:100BD00020E030E040E05FE30E9427130E946514AC
:100BE0006B017C01C501B4010E94281420913F01D2
:100BF0003091400140914101509142010E942613E1
:100C0000A70196010E942D1588230CF4AAC1109209
:100C10003E01A6DA0E94281460933F0170934001C0
:100C20008093410190934201209779F410924501FD
:100C300080E090E0A0E8BEE380931201909313015E
:100C4000A0931401B09315018CC1809143018130B0
:100C500071F41092430180E090E0A0E3B1E480934E
:100C6000120190931301A0931401B0931501809188
:100C70004501813009F0B7C010914601810F8430E1
:100C800019F08093460102C010924601E09146019E
:100C9000FF27E7FDF095E25FFE4F80818EB98091DE
:100CA00049018F5F883C18F48093490102C010927B
:100CB0004901C0901201D0901301E0901401F0900E
:100CC0001501A701960160E070E080E391E40E94C5
:100CD00026139B01AC010E9427130E9465142B016F
:100CE0003C01BE01882777FD8095982F0E942A1429
:100CF0004B015C0120E030E040E85FE3C301B2015A
:100D00000E9427139B01AC01C501B4010E948B1303
:100D1000181624F4809144018F3FA1F420E030E0C4
:100D200040E05FE3C701B6010E9427136093120100
:100D30007093130180931401909315018FEF8093AA
:100D40003E011EC020E030E040EE50E4C701B60195
:100D50000E942D1518160CF004C120E030E040E090
:100D60005FE3C701B6010E942613609312017093DE
:100D70001301809314019093150181E080933E014B
:100D8000809144018F3F09F0ECC020E030E040E367
:100D900051E46091120170911301809114019091BE
:100DA00015010E942D1588230CF4DBC08FEF809372
:100DB000450181E08093430180E090E0A0E2B2E44D
:100DC0008093120190931301A0931401B093150125
:100DD0009EB1E12FFF27E7FDF095E25FFE4F808196
:100DE000892B8EB9BEC08F3F09F0BBC01091460160
:100DF000810F8F3F19F08093460103C083E08093F9
:100E00004601E0914601FF27E7FDF095E25FFE4FC6
:100E100080818EB980914901811104C087EC809353
:100E2000490103C0815080934901C0901201D090C4
:100E30001301E0901401F0901501A701960160E004
:100E400070E080E391E40E9426139B01AC010E94B4
:100E500027130E9465142B013C01BE01DD2324F4FD
:100E6000662777276C1B7D0B882777FD8095982F49
:100E70000E942A144B015C0120E030E040E85FE36F
:100E8000C301B2010E9427139B01AC01C501B4014B
:100E90000E948B13181624F4809144018130A1F430
:100EA00020E030E040E05FE3C701B6010E94271375
:100EB00060931201709313018093140190931501B4
:100EC0008FEF80933E011EC020E030E040EE50E402
:100ED000C701B6010E942D1518160CF042C020E083
:100EE00030E040E05FE3C701B6010E942613609343
:100EF000120170931301809314019093150181E006
:100F000080933E0180914401813059F520E030E02A
:100F100040E351E46091120170911301809114013A
:100F2000909115010E942D158823DCF081E08093BB
:100F300045018093430180E090E0A0E2B2E4809319
:100F4000120190931301A0931401B09315019EB167
:100F5000E12FFF27E7FDF095E25FFE4F8081892BAF
:100F60008EB9DF91CF911F91FF90EF90DF90CF90DE
:100F7000BF90AF909F908F907F906F905F904F90B9
:100F800008958F929F92AF92BF92CF92DF92EF928D
:100F9000FF9280914301813009F409C180913E01A3
:100FA000813009F05EC0DCD84B015C0120E030E00C
:100FB00040E85EE360911201709113018091140189
:100FC000909115010E94311520E030E040E850E496
:100FD0000E94311520E030E040E05FE30E942713DB
:100FE0000E9465146B017C01C501B4010E942814A4
:100FF00020913F01309140014091410150914201C7
:101000000E942613A70196010E942D15882324F122
:10101000E091460180914501813071F4EF5FE43049
:1010200009F4E0E09EB1FF27E7FDF095E25FFE4F97
:101030008081892B8EB9BBC08F3F09F0B8C0E150C9
:1010400008F4E3E09EB1FF27E7FDF095E25FFE4F75
:101050008081892B8EB9ABC080914301813009F426
:10106000A6C080913E018F3F09F0A1C079D84B0105
:101070005C0120E030E040E45FE360911201709198
:10108000130180911401909115010E94311520E007
:1010900030E040E850E40E94311520E030E040E0CC
:1010A0005FE30E9427130E9465146B017C01C50158
:1010B000B4010E94281420913F01309140014091D9
:1010C0004101509142010E942613A70196010E94FE
:1010D0008B13181624F1E09146018091450181306F
:1010E00069F4E15008F4E3E09EB1FF27E7FDF095D5
:1010F000E25FFE4F8081892B8EB959C08F3F09F086
:1011000056C0EF5FE43009F4E0E09EB1FF27E7FD51
:10111000F095E25FFE4F8081892B8EB948C08091A7
:101120004301813009F443C080913E018F3F09F0B3
:101130003EC016D84B015C0120E030E040E45FE3A4
:101140006091120170911301809114019091150129
:101150000E94311520E030E040E850E40E94311553
:1011600020E030E040E05FE30E9427130E94651416
:101170006B017C01C501B4010E94281420913F013C
:101180003091400140914101509142010E9426134B
:10119000A70196010E942D1518164CF4E091460106
:1011A000FF27E7FDF095E25FFE4F80818EB9FF904B
:1011B000EF90DF90CF90BF90AF909F908F90089569
:1011C0007B993AC080913001909131018F3F2FEF90
:1011D000920789F48091550190915601A091570191
:1011E000B091580180933A0190933B01A0933C0148
:1011F000B0933D0117C00197A9F466E271E088E25F
:1012000091E0A4D9E0912601F091270180913A0163
:1012100090913B01A0913C01B0913D018087918765
:10122000A287B3878091300190913101019690930C
:101230003101809330010895809130019091310106
:10124000181619063CF08FEF9FEF909331018093B1
:101250003001089510923101109230010895CF931A
:10126000DF934D9B53C020912E0130912F012F3FD2
:101270008FEF380789F48091550190915601A09124
:101280005701B09158018093360190933701A09394
:101290003801B093390133C02130310581F5C09157
:1012A0002601D0912701EE89FF89309799F480912A
:1012B000550190915601A0915701B09158018C872A
:1012C0009D87AE87BF871BC086899789009759F095
:1012D000EF01FC0184859585A685B785892B8A2B2E
:1012E0008B2B91F3FE018091360190913701A091F3
:1012F0003801B091390184879587A687B7872F5F1A
:101300003F4F30932F0120932E0112C080912E0168
:1013100090912F01181619063CF08FEF9FEF9093D4
:101320002F0180932E0104C010922F0110922E01E4
:10133000DF91CF9108954E994FC020912C013091AB
:101340002D012F3F8FEF380789F48091550190913F
:101350005601A0915701B0915801809332019093AA
:101360003301A0933401B09335012FC021303105F2
:1013700061F5E0912801F0912901309731F18089E0
:101380009189A289B389892B8A2B8B2B69F480914F
:10139000320190913301A0913401B0913501808BDD
:1013A000918BA28BB38B11C00488F589E02D309707
:1013B00061F08091320190913301A0913401B0919C
:1013C0003501808B918BA28BB38B2F5F3F4F309376
:1013D0002D0120932C01089580912C0190912D01D5
:1013E000181619063CF08FEF9FEF90932D01809314
:1013F0002C01089510922D0110922C0108958F92C6
:101400009F92AF92BF92CF92DF92EF92FF920F9393
:101410001F93CF93DF93182F6B01EA0185B18111E0
:1014200079C08091510190915201892B09F074C0CB
:101430008091280190912901892B09F46FC00E94A5
:10144000460109B100950074E0912801F09129014D
:10145000108A118A128A138A84E085B90E94B0002A
:101460004B015C01CC0CDD1CCC0CDD1CE12CF12C07
:1014700062DF0E94B000AB01BC01481959096A093A
:101480007B09C416D506E606F70690F70E944601CA
:101490000E94460188E085B9111122C0E09128011F
:1014A000F091290180899189A289B389892B8A2B9E
:1014B0008B2B11F40023A1F1288139818091200127
:1014C00090912101820F931F99838883E0912801D5
:1014D000F0912901108A118A128A138A80E025C0AE
:1014E000E0912801F091290180899189A289B3892D
:1014F000892B8A2B8B2BB1F4011116C0888199811D
:101500002091200130912101821B930B99838883C4
:1015100080E00BC080E009C080E007C080E005C02B
:1015200081E003C080E001C080E0DF91CF911F9196
:101530000F91FF90EF90DF90CF90BF90AF909F9072
:101540008F9008953DDE8BDEF6CE08958F929F92A8
:10155000AF92BF92CF92DF92EF92FF92CF93DF9341
:1015600080915301909154011816190664F010925D
:101570005401109253018091510190915201909326
:10158000500180934F01A0905301B09054018FEF10
:10159000A81AB80AB0925401A0925301C0901C013D
:1015A000D0901D01E0901E01F0901F01C701B6010F
:1015B0000E94F713C0915101D0915201C60FD71F5D
:1015C000D0935201C0935101B501882777FD8095D2
:1015D000982F0E942A149B01AC01C701B6010E94FA
:1015E00031156B017C01BE01882777FD8095982F0E
:1015F0000E942A144B015C0160914F0170915001CF
:10160000882777FD8095982F0E942A149B01AC01B2
:10161000C501B4010E94261320E030E040E05FE302
:101620000E9427139B01AC01C701B6010E942D1532
:1016300018162CF42196D0935201C0935101809139
:1016400020019091210120915101309152012817E0
:10165000390740F090935201809351011092540148
:1016600010925301DF91CF91FF90EF90DF90CF90D8
:10167000BF90AF909F908F9008958F929F92AF925E
:10168000BF92CF92DF92EF92FF92CF93DF93809140
:10169000530190915401992364F0109254011092D7
:1016A0005301809151019091520190935001809388
:1016B0004F01A0905301B090540181E0A81AB108E5
:1016C000B0925401A0925301C0901801D09019011A
:1016D000E0901A01F0901B01C701B6010E94F713B8
:1016E000C0915101D0915201C60FD71FD093520122
:1016F000C0935101662777276A197B09882777FDF0
:101700008095982F0E942A149B01AC01C701B60155
:101710000E9431156B017C01BE01882777FD809501
:10172000982F0E942A144B015C0160914F01709127
:101730005001882777FD8095982F0E942A149B01DD
:10174000AC01C501B40182D720E030E040E05FE3A6
:101750007DD79B01AC01C701B601DDD788232CF4EE
:101760002197D0935201C0935101809151019091E2
:1017700052011816190644F01092520110925101AC
:101780001092540110925301DF91CF91FF90EF908E
:10179000DF90CF90BF90AF909F908F900895609111
:1017A000510170915201669FC001679F900D900D8D
:1017B000112466277727681B790B882777FD80958A
:1017C000982F0E942A1420911801309119014091FC
:1017D0001A0150911B01A3D70E94FC1370931701AB
:1017E00060931601089585B1883069F42091510104
:1017F00030915201809120019091210128173907E1
:1018000010F4A4DE0AC085B1811107C08091510196
:1018100090915201892B09F030DFC1DF40915101D5
:1018200050915201662757FD6095762F80915501A2
:1018300090915601A0915701B0915801840F951FC6
:10184000A61FB71F8093550190935601A09357018F
:10185000B09358010895CF92DF92EF92FF92CF9309
:10186000DF9300D0CDB7DEB70E9446010E94F100A1
:1018700088E085B90E94B0006B017C011A82198250
:1018800066E271E088E291E00E94A60283E0C80E61
:10189000D11CE11CF11C0E94B000C616D706E80658
:1018A000F906C8F70E94B0006B017C019CDF43DDA4
:1018B00089819A810E947602AE014F5F5F4F68EE88
:1018C00073E080E09CDD813009F70E94F10089819E
:1018D0009A812091200130912101821B930B9A83E0
:1018E000898318C00E94B000C616D706E806F9061C
:1018F000B0F40E94B0006B017C0175DF1CDD8981B2
:101900009A810E947602AE014F5F5F4F68EE73E0EE
:1019100081E075DD83E0C80ED11CE11CF11C8091D3
:101920002B0183FFDFCF877F80932B018A8182B9D0
:10193000898188B988E99AE30E94BC0080912001DE
:1019400090912101889FB001899F700D700D112425
:1019500071956195710980E090E07AD76B017C0107
:10196000609118017091190180911A0190911B01E9
:101970009B01AC016CD69B01AC01C701B601CFD66F
:101980006B017C0169817A8180E090E061D79B01E5
:10199000AC01C701B6015BD62FD772B968B988E927
:1019A0009AE30E94BC0066E271E088E291E00E9446
:1019B000E8020F900F90DF91CF91FF90EF90DF90B2
:1019C000CF9008952F923F924F925F926F927F92A5
:1019D0008F929F92AF92BF92CF92DF92EF92FF923F
:1019E0000F931F93CF93DF9300D000D0CDB7DEB716
:1019F0000E9446010E94F10089EB0E94E300809161
:101A00002B0183FDB4C0B12C212C312C68946624A9
:101A100063F8712C812C912CA12C0FEF1FEF65B86E
:101A2000C72CD82CE92CFA2C7B9917C08091300157
:101A300090913101019621F40E94B0006B017C016C
:101A4000809130019091310181309105B9F001967A
:101A50009093310180933001E7CF809130019091D4
:101A60003101181619062CF0109331010093300142
:101A7000DBCF1092310110923001D6CF0E94B0001E
:101A8000DC01CB018C199D09AE09BF09813293405D
:101A9000A105B10598F30E94460165B8672D782D20
:101AA000892D9A2D4E9917C0209130013091310126
:101AB0002F3F3F4F11F40E94B00020913001309130
:101AC000310121303105C1F02F5F3F4F309331019B
:101AD00020933001E7CF209130013091310112166F
:101AE00013062CF01093310100933001DBCF1092DC
:101AF000310110923001D6CFAB01BC014C195D0908
:101B00006E097F0976956795579547957695679500
:101B1000579547952B2D30E0229DC001239D900DB8
:101B2000329D900D11246A017B01C80ED91EE11C63
:101B3000F11CC701B6012F5F3F4F442737FD409589
:101B4000542F0E94A815E22EF32E170132B928B99E
:101B50000E944601C7018C599F4F0E945F010E945D
:101B60004601B39480912B0183FF59CF02C0212CF1
:101B7000312C877F80932B0160912001709121018E
:101B800080E090E065D66B017C0140901C01509094
:101B90001D0160901E0170901F01A3019201BFD52D
:101BA0004B015C01A7019601C701B6015AD79B0101
:101BB000AC01505829833A834B835C83B1016C524A
:101BC000714080E090E044D6A50194013FD514D641
:101BD00080E090E03DD69B01AC01C701B60141D742
:101BE0009B01AC0160E07CE380E798E42FD56B01BA
:101BF0007C0120E030E040E05FE3C301B20131D777
:101C0000A50194012ED7A50194012BD79B01AC010E
:101C1000C701B6011BD59B01AC0119D59B01AC01D5
:101C200069817A818B819C817AD5905820E030E05F
:101C30004AE754E416D76093180170931901809312
:101C40001A0190931B01D3D568B960911801709166
:101C5000190180911A0190911B01C9D572B9809127
:101C6000180190911901A0911A01B0911B01BC01BA
:101C7000CD01905820E030E04AE754E450D560931D
:101C800018017093190180931A0190931B0188E940
:101C90009AE30E94BC00DFDD0F900F900F900F9031
:101CA000DF91CF911F910F91FF90EF90DF90CF9038
:101CB000BF90AF909F908F907F906F905F904F906C
:101CC0003F902F9008956F927F928F929F92AF9244
:101CD000BF92CF92DF92EF92FF920F931F93CF9319
:101CE000DF930E9446010E94F10080912B0183FD49
:101CF00084C0B12C00E010E06894AA24A3F8612C01
:101D0000712C812C912CCFEFDFEF81E40E94E30056
:101D1000A5B87B99FECF0E9446010E94B0006B01DE
:101D20007C01A5B889EB0E94E300662D772D882DF4
:101D3000992D4E9917C020913001309131012F3FDC
:101D40003F4F11F40E94B0002091300130913101D9
:101D500021303105C1F02F5F3F4F30933101209387
:101D60003001E7CF20913001309131011216130676
:101D70002CF0D0933101C0933001DBCF10923101B0
:101D800010923001D6CFAB01BC014C195D096E0930
:101D90007F097695679557954795769567955795F9
:101DA00047952B2D30E0209FC001219F900D309F43
:101DB000900D11247A018B01E80EF91E011D111DF1
:101DC000C801B7012F5F3F4F442737FD4095542F7F
:101DD000BFD6E22EF32E870132B928B90E94460100
:101DE000C70186509F4F0E945F010E944601B39435
:101DF00080912B0183FF89CF02C000E010E0877F34
:101E000080932B01609120017091210180E090E08E
:101E10001FD56B017C019B01AC0123D69B01AC015A
:101E200060E07CE380EF98E47AD44B015C01B80178
:101E300080E090E00DD59B01AC0109D4A70196018B
:101E40006ED49B01AC01C501B40100D49B01AC016F
:101E500060E070E080E89FEB62D420E030E04AE789
:101E600054E4FFD560931C0170931D0180931E0103
:101E700090931F01BCD468B960911C0170911D0141
:101E800080911E0190911F01B2D472B920E030E020
:101E90004AE754E460911C0170911D0180911E017C
:101EA00090911F013CD460931C0170931D0180939D
:101EB0001E0190931F0188E99AE30E94BC0082DD15
:101EC000DF91CF911F910F91FF90EF90DF90CF9016
:101ED000BF90AF909F908F907F906F9008956F927A
:101EE0007F928F929F92AF92BF92CF92DF92EF92AA
:101EF000FF920F931F93CF93DF930E9446010E949E
:101F0000F10089EB0E94E30080912B0183FDA4C0C6
:101F1000B12C00E010E06894662463F8712C812CE9
:101F2000912CA12CCFEFDFEF65B8C72CD82CE92C72
:101F3000FA2C7B991CC0809130019091310101965F
:101F400021F40E94B0006B017C01809130019091DE
:101F500031018130910529F4672D782D892D9A2D35
:101F600017C001969093310180933001E2CF8091A8
:101F7000300190913101181619062CF0D0933101DF
:101F8000C0933001D6CF1092310110923001D1CFE1
:101F90004E9917C020913001309131012F3F3F4FB2
:101FA00011F40E94B00020913001309131012130B4
:101FB0003105C1F02F5F3F4F309331012093300145
:101FC000E7CF2091300130913101121613062CF029
:101FD000D0933101C0933001DBCF109231011092C8
:101FE0003001D6CFAB01BC014C195D096E097F09E8
:101FF0007695679557954795769567955795479543
:102000002B2D30E0209FC001219F900D309F900D1F
:1020100011247A018B01E80EF91E011D111DC80162
:10202000B7012F5F3F4F442737FD4095542F90D580
:10203000E22EF32E870132B928B90E944601C7016A
:102040008C509E4F0E945F010E944601B394809184
:102050002B0183FF69CF02C000E010E0877F8093EF
:102060002B01980140E050E060EF70EC83E090E0DD
:1020700091D5209320013093210132B98091200124
:1020800088B988E99AE30E94BC001DDEDF91CF91F8
:102090001F910F91FF90EF90DF90CF90BF90AF9086
:1020A0009F908F907F906F900895809155019091AF
:1020B0005601A0915701B091580180934B01909324
:1020C0004C01A0934D01B0934E010895E09124017D
:1020D000F0912501309759F020E09081981301C0CC
:1020E0002F5F0180F281E02D3097B9F701C020E029
:1020F000822F0895CF93DF9315B810924A01D1E053
:1021000023C080914B0190914C01A0914D01B09161
:102110004E01892B8A2B8B2B19F0216020932B01E8
:1021200010924B0110924C0110924D0110924E01F1
:10213000CD2FC2B98C2FCADF88B988E893E10E94FD
:10214000BC00CF5FC530A9F720912B0120FFD9CF6C
:1021500080914B0190914C01A0914D01B0914E01A5
:10216000892B8A2B8B2BC9F62E7F20932B0112B83B
:1021700018B8DF91CF91089580912B01882309F140
:1021800080FF06C08E7F80932B0181E080934A01FF
:1021900080912B0181FF04C08D7F80932B0185DF0F
:1021A00080912B0182FF05C08B7F80932B010E94C1
:1021B0008C0180912B0183FF04C0877F80932B01CA
:1021C0008ECE08958F929F92AF92BF92CF92DF9260
:1021D000EF92FF920F931F9389EB0E94E30088E038
:1021E00085B9812C912C5401C12CD12C76010E94EF
:1021F000B000970186010D5F1F4F2F4F3F4F06170D
:10220000170728073907D0F50E94B0006B017C0141
:10221000EADA0E94BC0496D90E9439030E949C030A
:10222000ABDF8091510190915201181619062CF0E4
:1022300080914A01813009F45DDF80914B019091DA
:102240004C01A0914D01B0914E010097A105B1053F
:10225000A9F040915501509156016091570170913C
:1022600058018A019B01081B190B2A0B3B0BD90152
:10227000C801813B9147AB40B105C8F40E94B00052
:10228000681579058A059B0541F00E94B0004B0155
:102290005C010E949B050E94C10780916801882310
:1022A00009F4A5CF109268010E94E703A0CF22DFB6
:1022B0001F910F91FF90EF90DF90CF90BF90AF9064
:1022C0009F908F9008950E946D000E9420010E94AF
:1022D0001D0478DF80E090E008951F920F920FB602
:1022E0000F9211240BB60F920F931F932F933F93CE
:1022F0004F935F936F937F938F939F93AF93BF930E
:10230000EF93FF930E94B0000091590110915A0180
:1023100020915B0130915C01DC01CB01801B910BB2
:10232000A20BB30B81399140A105B10578F00E9451
:10233000B0006093590170935A0180935B019093B0
:102340005C0180912B01816080932B01FF91EF91C3
:10235000BF91AF919F918F917F916F915F914F91BD
:102360003F912F911F910F910F900BBE0F900FBEB9
:102370000F901F9018951F920F920FB60F92112475
:102380000BB60F920F931F932F933F934F935F932F
:102390006F937F938F939F93AF93BF93EF93FF932D
:1023A0000E94B0000091590110915A0120915B01E7
:1023B00030915C01DC01CB01801B910BA20BB30BB4
:1023C00081399140A105B10578F00E94B000609379
:1023D000590170935A0180935B0190935C01809145
:1023E0002B01826080932B01FF91EF91BF91AF9100
:1023F0009F918F917F916F915F914F913F912F911D
:102400001F910F910F900BBE0F900FBE0F901F905A
:1024100018951F920F920FB60F9211240BB60F92C0
:102420000F931F932F933F934F935F936F937F93DC
:102430008F939F93AF93BF93EF93FF930E94B0004E
:102440000091590110915A0120915B0130915C017A
:10245000DC01CB01801B910BA20BB30B81399140A6
:10246000A105B10578F00E94B00060935901709306
:102470005A0180935B0190935C0180912B018460F1
:1024800080932B01FF91EF91BF91AF919F918F911D
:102490007F916F915F914F913F912F911F910F917C
:1024A0000F900BBE0F900FBE0F901F9018951F92AC
:1024B0000F920FB60F9211240BB60F920F931F932A
:1024C0002F933F934F935F936F937F938F939F933C
:1024D000AF93BF93EF93FF930E94B0000091590117
:1024E00010915A0120915B0130915C01DC01CB011C
:1024F000801B910BA20BB30B81399140A105B10553
:1025000078F00E94B0006093590170935A01809353
:102510005B0190935C0180912B01886080932B017B
:10252000FF91EF91BF91AF919F918F917F916F91AB
:102530005F914F913F912F911F910F910F900BBE83
:102540000F900FBE0F901F9018951F920F920FB60D
:102550000F9211242F933F938F939F938091780034
:1025600090E090936701809366012091790030E0BC
:10257000322F2227820F931F909367018093660169
:1025800081E0809368019F918F913F912F910F90EF
:102590000FBE0F901F9018951F920F920FB60F92BB
:1025A00011242F933F938F939F93AF93BF93809169
:1025B000620190916301A0916401B0916501309135
:1025C000610123E0230F2D3720F40196A11DB11DD9
:1025D00005C026E8230F0296A11DB11D20936101BD
:1025E0008093620190936301A0936401B0936501AD
:1025F00080915D0190915E01A0915F01B0916001B9
:102600000196A11DB11D80935D0190935E01A09381
:102610005F01B09360011092B200BF91AF919F91A2
:102620008F913F912F910F900FBE0F901F90189593
:102630001F920F920FB60F9211248F938FEF82B9D2
:102640008F910F900FBE0F901F9018955058BB2779
:10265000AA270ED0B1C1A2D130F0A7D120F031F419
:102660009F3F11F41EF497C10EF4E095E7FB64C19F
:10267000E92FB3D180F3BA17620773078407950770
:1026800018F071F49EF5E2C10EF4E0950B2EBA2F0E
:10269000A02D0B01B90190010C01CA01A001112468
:1026A000FF27591B99F0593F50F4503E68F11A1614
:1026B000F040A22F232F342F4427585FF3CF4695A5
:1026C00037952795A795F0405395C9F77EF41F16C7
:1026D000BA0B620B730B840BBAF09150A1F0FF0F91
:1026E000BB1F661F771F881FC2F70EC0BA0F621F7D
:1026F000731F841F48F4879577956795B795F7956D
:102700009E3F08F0B3CF9395880F08F09927EE0FFE
:10271000979587950895ECD008F481E008950CD042
:102720004BC143D140F03AD130F021F45F3F19F072
:1027300003C151118CC12FC150D198F39923C9F312
:102740005523B1F3951B550BBB27AA2762177307B7
:10275000840738F09F5F5F4F220F331F441FAA1F6B
:10276000A9F333D00E2E3AF0E0E830D0915050402B
:10277000E695001CCAF729D0FE2F27D0660F771FD9
:10278000881FBB1F261737074807AB07B0E809F0BB
:10279000BB0B802DBF01FF2793585F4F2AF09E3F50
:1027A000510568F0C9C053C15F3FECF3983EDCF3BC
:1027B000869577956795B795F7959F5FC9F7880FC9
:1027C000911D9695879597F90895E1E0660F771F1B
:1027D000881FBB1F621773078407BA0720F0621BAC
:1027E000730B840BBA0BEE1F88F7E095089504D0A5
:1027F0006894B1112CC10895F8D088F09F5790F0DB
:10280000B92F9927B751A0F0D1F0660F771F881F15
:10281000991F1AF0BA95C9F712C0B13081F016D1DC
:10282000B1E0089513C1672F782F8827B85F39F07A
:10283000B93FCCF3869577956795B395D9F73EF474
:1028400090958095709561957F4F8F4F9F4F08951C
:10285000E89409C097FB3EF490958095709561953A
:102860007F4F8F4F9F4F9923A9F0F92F96E9BB27F0
:102870009395F695879577956795B795F111F8CF6C
:10288000FAF4BB0F11F460FF1BC06F5F7F4F8F4FD7
:102890009F4F16C0882311F096E911C0772321F0CD
:1028A0009EE8872F762F05C0662371F096E8862F65
:1028B00070E060E02AF09A95660F771F881FDAF7BC
:1028C000880F9695879597F90895A9D080F09F373E
:1028D00040F491110EF0BBC060E070E080E89FEB27
:1028E000089526F41B16611D711D811D2BC045C066
:1028F000990F0008550FAA0BE0E8FEEF1616170611
:10290000E807F907C0F012161306E407F50798F078
:10291000621B730B840B950B39F40A2661F0232B91
:10292000242B252B21F408950A2609F4A140A6950D
:102930008FEF811D811D089597F99F6780E870E0F2
:1029400060E00895882371F4772321F09850872B55
:10295000762F07C0662311F499270DC09051862B5E
:1029600070E060E02AF09A95660F771F881FDAF70B
:10297000880F9695879597F908959F3F31F091506C
:1029800020F4879577956795B795880F911D969553
:10299000879597F908959FEF80EC089500240A9495
:1029A0001616170618060906089500240A9412162A
:1029B0001306140605060895092E0394000C11F45D
:1029C000882352F0BB0F40F4BF2B11F460FF04C00A
:1029D0006F5F7F4F8F4F9F4F089557FD9058440F63
:1029E000551F59F05F3F71F04795880F97FB991F6E
:1029F00061F09F3F79F0879508951216130614062B
:102A0000551FF2CF4695F1DF08C0161617061806B7
:102A1000991FF1CF86957105610508940895E5DF4A
:102A2000A0F0BEE7B91788F4BB279F3860F41616EC
:102A3000B11D672F782F8827985FF7CF86957795F8
:102A40006795B11D93959639C8F30895E894BB270F
:102A500066277727CB0197F908954ADF08F48FEFAF
:102A600008950BD0A9CF9ADF28F09FDF18F09523A7
:102A700009F062CF90CF1124EACFAFDFA0F3959F8A
:102A8000D1F3950F50E0551F629FF001729FBB2755
:102A9000F00DB11D639FAA27F00DB11DAA1F649F01
:102AA0006627B00DA11D661F829F2227B00DA11DB4
:102AB000621F739FB00DA11D621F839FA00D611D3A
:102AC000221F749F3327A00D611D231F849F600D5B
:102AD000211D822F762F6A2F11249F5750408AF094
:102AE000E1F088234AF0EE0FFF1FBB1F661F771F20
:102AF000881F91505040A9F79E3F510570F01CCFA0
:102B0000A6CF5F3FECF3983EDCF38695779567950B
:102B1000B795F795E7959F5FC1F7FE2B880F911D3D
:102B20009695879597F90895AA1BBB1B51E107C09D
:102B3000AA1FBB1FA617B70710F0A61BB70B881F4D
:102B4000991F5A95A9F780959095BC01CD010895DC
:102B5000A1E21A2EAA1BBB1BFD010DC0AA1FBB1FA1
:102B6000EE1FFF1FA217B307E407F50720F0A21B13
:102B7000B30BE40BF50B661F771F881F991F1A9480
:102B800069F760957095809590959B01AC01BD01AA
:102B9000CF010895052E97FB16F400940FD057FD32
:102BA00005D0D6DF07FC02D046F408C0509540950A
:102BB000309521953F4F4F4F5F4F089590958095E9
:102BC000709561957F4F8F4F9F4F0895A29FB001E1
:102BD000B39FC001A39F700D811D1124911DB29F51
:102BE000700D811D1124911D0895CF93DF938230C4
:102BF000910510F482E090E0E0917101F091720192
:102C000020E030E0A0E0B0E0309739F14081518120
:102C100048175907B8F04817590771F48281938112
:102C2000109729F013969C938E9312972CC0909333
:102C300072018093710127C02115310531F04217CF
:102C4000530718F0A901DB0101C0EF019A01BD0192
:102C5000DF010280F381E02DD7CF21153105F9F096
:102C6000281B390B2430310580F48A819B81611542
:102C7000710521F0FB019383828304C0909372015C
:102C800080937101FE01329644C0FE01E20FF31FF2
:102C90008193919322503109398328833AC020913E
:102CA0006F0130917001232B41F42091020130918A
:102CB00003013093700120936F0120910001309146
:102CC00001012115310541F42DB73EB740910401B2
:102CD00050910501241B350BE0916F01F0917001BB
:102CE000E217F307A0F42E1B3F0B2817390778F0E3
:102CF000AC014E5F5F4F2417350748F04E0F5F1F42
:102D00005093700140936F018193919302C0E0E072
:102D1000F0E0CF01DF91CF910895CF93DF9300973B
:102D200009F487C0FC01329713821282C0917101AD
:102D3000D0917201209781F420813181280F391FB1
:102D400080916F01909170018217930779F5F0934C
:102D50007001E0936F016DC0DE0120E030E0AE173E
:102D6000BF0750F412964D915C9113979D01411548
:102D7000510509F1DA01F3CFB383A2834081518178
:102D8000840F951F8A179B0771F48D919C91119761
:102D9000840F951F02969183808312968D919C914A
:102DA0001397938382832115310529F4F0937201DF
:102DB000E09371013EC0D9011396FC93EE931297F4
:102DC0004D915D91A40FB51FEA17FB0779F480813F
:102DD0009181840F951F0296D90111969C938E9331
:102DE0008281938113969C938E931297E0E0F0E09A
:102DF0008A819B81009719F0FE01EC01F9CFCE0189
:102E0000029628813981820F931F20916F013091A2
:102E100070012817390769F4309729F4109272016C
:102E20001092710102C013821282D0937001C0937C
:0C2E30006F01DF91CF910895F894FFCF5F
:102E3C00000073012000C4037C00C3034902300668
:102E4C0028050000803F983A560E91C06DE7CB3FA5
:022E5C005F0114
:00000001FF
